:03000000020131C9
:0B000300C0F9A4B0999282F88090FF31
:10000E00C0E0C0D0C000E4FBFCFDFE75F018E9A214
:10001E00E7E833F8E933F9EA33FAEB3BD4FBEC3C8F
:10002E00D4FCED3DD4FDEE3ED4FED5F0E1D000D0B3
:10003E00D0D0E022900003EB540F93F591EBC45413
:10004E000F93F592EC540F93F593ECC4540F93F574
:10005E0094ED540F93F58EEDC4540F93F58FEE542B
:10006E000F93F596EEC4540F93F59722EE54F0C409
:10007E007057EE540F44A0FEEE540F704CEE54F039
:10008E00440AFEED54F0C47040ED540F44A0FDED53
:10009E00540F7035ED54F0440AFDEC54F0C4702941
:1000AE00EC540F44A0FCEC540F701EEC54F0440AB8
:1000BE00FCEB54F0C47012EB540F44A0FBEB540F46
:1000CE007007EB54F0440AFB22221200EFAB8AAC0D
:1000DE008C7D001200E522E82BF8E93CF9EA3DFAA6
:1000EE00227BFF7CFF7D00780079007A00EFFE70A6
:1000FE00012211E51EEE70FA227F007AB079FA78AD
:10010E00FAD8FE308D03C28D0FD9F4DAF022C28CEC
:10011E0074F055894405F589C28C758A00758C007A
:10012E00D28C2275817F75E800759500759E0075DD
:10013E00F800D2B412011C120107C28C11D8110E94
:06014E00117A114280EE5F
:00000001FF
