:0300000002036E8A
:10000300C0E0C0D0C000E4F534F535F5367810E52E
:1000130031A2E7E53033F530E53133F531E53435F9
:1000230034D4F534E5353535D4F535E5363536D4C0
:10003300F536D8DBD000D0D0D0E02213C0D030E7E3
:100043000224D030E30224FDD0D022C0E0C0D0C0CF
:1000530000C034C035C0367810C3E53612003EF513
:1000630036E53512003EF535E53412003EF534E54C
:100073003113F531E53013F530D8DED036D035D035
:1000830034D000D0D0D0E022C0E0C0D0E53025325B
:10009300F530E5313533F531D0D0D0E022C0E0C0C2
:1000A300D0C3E5309532F530E5319533F531D0D015
:1000B300D0E022C0E0C0D0C3E5309532E5319533BE
:1000C3009200D0D0D0E022C0E0C0D0C3E53295305A
:1000D300E53395319200D0D0D0E022C0E0C0D0C249
:1000E30000C3E53295307008E53395317002D200D4
:1000F300D0D0D0E0221200DE2000030200CA221278
:1001030000DE2000030200B622C0E0C0F0C0D0C071
:1001130000C001E5308532F0A4F8A9F0E53185325D
:10012300F0A429F9E435F0FAE5308533F0A429F990
:1001330089318830D001D000D0D0D0F0D0E022C0B7
:10014300E0C0F0C0D0C000C001C002C00378807A14
:10015300087B00EB48FBF5F0A4C39530F9E5F09577
:100163003149600D50028004E8F45BFBE803F8DAE0
:10017300E28B30753100D003D002D001D000D0D053
:10018300D0F0D0E022C0E0C0D0C000C001C0027AED
:1001930010E4F8F9C3E53033F530E53133F531E8F0
:1001A30033F8E933F9C3E89532E99533400BE89521
:1001B30032F8E99533F9433001DAD9D002D001D0CE
:1001C30000D0D0D0E02285303285313322E530C5EE
:0A01D30032F530E531C533F5312275
:1001DD00C0F9A4B0999282F880908883C6A1868ECA
:1001ED0012031220F90430F9FD2250F4EFC3940AE2
:1001FD0050EE1202E51202A50201ED20FB2230FBAA
:10020D00FD12004E1201C91202CE1202A51201ED0D
:10021D0012004E1201D012008B1200031202A52201
:10022D0020FA2230FAFD12004E1201C91202CE122E
:10023D0002A51201ED12004E1201D01200A0120003
:10024D00031202A522E59E30E124E59E20E1FB127A
:10025D00004E1201C91202CE1202A51201ED1200BA
:10026D004E1201D012010C1200031202A522E59EBE
:10027D0030E024E59E20E0FB12004E1201C912026F
:10028D00CE1202A51201ED12004E1201D0120188FC
:10029D001200031202A522229001DDE534540F93C2
:1002AD00F591E534C4540F93F592E535540F93F55C
:1002BD0093E535C4540F93F594E536540F93F58EAD
:1002CD0022E4F534F535F536759140759240759308
:1002DD0040759440758E40227804C3E53433F5346F
:1002ED00E53533F535E53633F536D8EEEF4534F5EE
:1002FD0034E536540FF53622781E794A7AFADAFE4D
:10030D00D9FAD8F622ACE8AD95EC4D60291203056B
:10031D00E5E8C39C7020E595C39D701A7F10C3EC72
:10032D0033FCED33FD4004DFF5800B1FD3E5E870A2
:10033D00FCE59570FC22C322759730759619758F63
:10034D0024758E2475941975937975922475917908
:10035D007B28120305DBFB75977F75967F758F7F65
:10036D002275817FE4F5E8F595F59EF5F8F534F500
:10037D0035F5361203451202A5120208120312506A
:10038D00F8EFC3940A50F21202E51202A502038699
:00000001FF
