:03000000020217E2
:10000300C0E0C0D0C000E4F534F535F5367810E52E
:1000130031A2E7E53033F530E53133F531E53435F9
:1000230034D4F534E5353535D4F535E5363536D4C0
:10003300F536D8DBD000D0D0D0E02213C0D030E7E3
:100043000224D030E30224FDD0D022C0E0C0D0C0CF
:1000530000C034C035C0367810C3E53612003EF513
:1000630036E53512003EF535E53412003EF534E54C
:100073003113F531E53013F530D8DED036D035D035
:1000830034D000D0D0D0E022C0E0C0D0E53025325B
:10009300F530E5313533F531D0D0D0E022C0E0C0C2
:1000A300D0C3E5309532F530E5319533F531D0D015
:1000B300D0E022C0E0C0D0C3E5309532E5319533BE
:1000C3009200D0D0D0E022C0E0C0D0C3E53295305A
:1000D300E53395319200D0D0D0E022C0E0C0D0C249
:1000E30000C3E53295307008E53395317002D200D4
:1000F300D0D0D0E0221200DE2000030200CA221278
:1001030000DE2000030200B622C0E0C0F0C0D0C071
:1001130000C001E5308532F0A4F8A9F0E53185325D
:10012300F0A429F9E435F0FAE5308533F0A429F990
:1001330089318830D001D000D0D0D0F0D0E022C0B7
:10014300E0C0F0C0D0C000C001C002C00378807A14
:10015300087B00EB48FBF5F0A4C39530F9E5F09577
:100163003149600D50028004E8F45BFBE803F8DAE0
:10017300E28B30753100D003D002D001D000D0D053
:10018300D0F0D0E022C0E0C0D0C000C001C0027AED
:1001930010E4F8F9C3E53033F530E53133F531E8F0
:1001A30033F8E933F9C3E89532E99533400BE89521
:1001B30032F8E99533F9433001DAD9D002D001D0CE
:1001C30000D0D0D0E02285303285313322E530C5EE
:0A01D30032F530E531C533F5312275
:1001DD00407924301912027800109001DDE5365473
:1001ED000F93F58EE535C4540F93F594E535540F03
:1001FD0093F593E534C4540F93F592E534540F936E
:10020D00F5912220F9FD30F9FD2275817FE4F5F895
:10021D00F5E8F595F59E7530D275310475320A7590
:10022D00330012010C1200031201E7120210753097
:10023D00D275310475321475330012010C1200039E
:10024D001201E712021075309C7531AD75320B75C8
:10025D0033001201881200031201E71202107530EB
:10026D00E875310375320A753300120188120003E7
:10027D001201E712021075309C7531AD75320075A3
:10028D0033001201881200031201E71202107530BB
:10029D00037531D97532037533D9120188120003F4
:1002AD001201E71202107530D27531047532D7750F
:1002BD00331112008B1200031201E7120210753078
:1002CD00D77531117532D27533041200A0120003A7
:1002DD001201E7120210753000753151753200753B
:1002ED0033001201421200031201E71202107530A1
:1002FD00FF7531007532FF75330012010C1201428A
:0C030D001200031201E71202100202238A
:00000001FF
