:03000000020150AA
:03000B000200F6FA
:03001B00020029B7
:10001E00C0F9A4B0999282F88090FF758D93758B7C
:10002E007FC0D0C0E0C082C08320E839E53604F539
:10003E0036B46431753600E5322401D4F532B4603D
:10004E0024753200E5312401D4F531B460177531D1
:10005E0000E5302401D4F530B41202B201B4130518
:10006E00753001B20130E9061201020200DD900086
:10007E001E200105759188800375918CE532540F11
:10008E0093F593E532C4540F93F594E531540F93E1
:10009E00F58EE531C4540F93F58FE530540F93F57B
:1000AE0096E53020E40274A0C4540F93F5977400C3
:1000BE003001010430020104B401030200DDE53019
:1000CE00B5330CE531B53407E532B53502D2003023
:1000DE00EA0DC200753500753400753300C202D0CA
:1000EE0083D082D0E0D0D032300002B280758CE462
:1000FE00758AE03290001E20020575918880037586
:10010E00918CE535540F93F593E535C4540F93F563
:10011E0094E534540F93F58EE534C4540F93F58F54
:10012E00E533540F93F596E53320E40274A0C454DE
:10013E000F93F597227A5A79FA78FAD8FED9FADA25
:10014E00F62275817F75E800759500759E0075F82D
:10015E0000759A01D28075320075310075301275B6
:10016E003500753400753300753600C201C2027554
:10017E008911C28CC28D758CE4758AE0D28CD2A99D
:10018E00C28EC28F758D93758B7FD28ED2ABD2AF4E
:10019E0030E83E20FB1530FBFDE5302401D4F53070
:1001AE00B41202B201B4130375300120FA1030FA02
:1001BE00FDE5312401D4F531B4600375310120F928
:1001CE00CF30F9FDE5322401D4F532B460C2753278
:1001DE000130E9BC20FB1530FBFDE5332401D4F5DD
:1001EE0033B41202B202B4130375330120FA103085
:1001FE00FAFDE5342401D4F534B4600375340120DE
:10020E00F98E30F9FDE5352401D4F535B46003756A
:05021E00350102019E04
:00000001FF
